{
  "_format": "hh-sol-artifact-1",
  "contractName": "Confesster",
  "sourceName": "contracts/Confesster.sol",
  "abi": [
    {
      "inputs": [],
      "stateMutability": "nonpayable",
      "type": "constructor"
    },
    {
      "anonymous": false,
      "inputs": [
        {
          "indexed": false,
          "internalType": "uint256",
          "name": "id",
          "type": "uint256"
        },
        {
          "indexed": false,
          "internalType": "address",
          "name": "buyer",
          "type": "address"
        },
        {
          "indexed": false,
          "internalType": "address",
          "name": "author",
          "type": "address"
        },
        {
          "indexed": false,
          "internalType": "string",
          "name": "message",
          "type": "string"
        },
        {
          "indexed": false,
          "internalType": "uint256",
          "name": "timestamp",
          "type": "uint256"
        }
      ],
      "name": "CoffeeBought",
      "type": "event"
    },
    {
      "anonymous": false,
      "inputs": [
        {
          "indexed": false,
          "internalType": "uint256",
          "name": "id",
          "type": "uint256"
        },
        {
          "indexed": false,
          "internalType": "string",
          "name": "hash",
          "type": "string"
        },
        {
          "indexed": false,
          "internalType": "string",
          "name": "message",
          "type": "string"
        },
        {
          "indexed": false,
          "internalType": "string",
          "name": "category",
          "type": "string"
        },
        {
          "indexed": false,
          "internalType": "address",
          "name": "author",
          "type": "address"
        },
        {
          "indexed": false,
          "internalType": "uint256",
          "name": "timestamp",
          "type": "uint256"
        }
      ],
      "name": "ConfessionCreated",
      "type": "event"
    },
    {
      "inputs": [
        {
          "internalType": "address",
          "name": "_author",
          "type": "address"
        },
        {
          "internalType": "string",
          "name": "_message",
          "type": "string"
        }
      ],
      "name": "buyCoffee",
      "outputs": [],
      "stateMutability": "payable",
      "type": "function"
    },
    {
      "inputs": [],
      "name": "coffeePrice",
      "outputs": [
        {
          "internalType": "uint256",
          "name": "",
          "type": "uint256"
        }
      ],
      "stateMutability": "view",
      "type": "function"
    },
    {
      "inputs": [],
      "name": "coffeesCount",
      "outputs": [
        {
          "internalType": "uint256",
          "name": "_value",
          "type": "uint256"
        }
      ],
      "stateMutability": "view",
      "type": "function"
    },
    {
      "inputs": [
        {
          "internalType": "uint256",
          "name": "",
          "type": "uint256"
        }
      ],
      "name": "confessions",
      "outputs": [
        {
          "internalType": "uint256",
          "name": "id",
          "type": "uint256"
        },
        {
          "internalType": "string",
          "name": "hash",
          "type": "string"
        },
        {
          "internalType": "string",
          "name": "message",
          "type": "string"
        },
        {
          "internalType": "string",
          "name": "category",
          "type": "string"
        },
        {
          "internalType": "address",
          "name": "author",
          "type": "address"
        },
        {
          "internalType": "uint256",
          "name": "timestamp",
          "type": "uint256"
        }
      ],
      "stateMutability": "view",
      "type": "function"
    },
    {
      "inputs": [],
      "name": "confessionsCount",
      "outputs": [
        {
          "internalType": "uint256",
          "name": "_value",
          "type": "uint256"
        }
      ],
      "stateMutability": "view",
      "type": "function"
    },
    {
      "inputs": [
        {
          "internalType": "string",
          "name": "_message",
          "type": "string"
        },
        {
          "internalType": "string",
          "name": "_hash",
          "type": "string"
        },
        {
          "internalType": "string",
          "name": "_category",
          "type": "string"
        }
      ],
      "name": "createConfession",
      "outputs": [],
      "stateMutability": "nonpayable",
      "type": "function"
    },
    {
      "inputs": [],
      "name": "name",
      "outputs": [
        {
          "internalType": "string",
          "name": "",
          "type": "string"
        }
      ],
      "stateMutability": "view",
      "type": "function"
    }
  ],
  "bytecode": "0x60806040526040518060400160405280600a81526020017f436f6e6665737374657200000000000000000000000000000000000000000000815250600090816200004a9190620003f0565b503480156200005857600080fd5b50620000a46040518060400160405280601981526020017f4465706c6f79696e67206120436f6e666573737465722e2e2e00000000000000815250620000aa60201b620008e71760201c565b6200058a565b6200014a81604051602401620000c1919062000566565b6040516020818303038152906040527f41304fac000000000000000000000000000000000000000000000000000000007bffffffffffffffffffffffffffffffffffffffffffffffffffffffff19166020820180517bffffffffffffffffffffffffffffffffffffffffffffffffffffffff83818316178352505050506200014d60201b60201c565b50565b60008151905060006a636f6e736f6c652e6c6f679050602083016000808483855afa5050505050565b600081519050919050565b7f4e487b7100000000000000000000000000000000000000000000000000000000600052604160045260246000fd5b7f4e487b7100000000000000000000000000000000000000000000000000000000600052602260045260246000fd5b60006002820490506001821680620001f857607f821691505b6020821081036200020e576200020d620001b0565b5b50919050565b60008190508160005260206000209050919050565b60006020601f8301049050919050565b600082821b905092915050565b600060088302620002787fffffffffffffffffffffffffffffffffffffffffffffffffffffffffffffffff8262000239565b62000284868362000239565b95508019841693508086168417925050509392505050565b6000819050919050565b6000819050919050565b6000620002d1620002cb620002c5846200029c565b620002a6565b6200029c565b9050919050565b6000819050919050565b620002ed83620002b0565b62000305620002fc82620002d8565b84845462000246565b825550505050565b600090565b6200031c6200030d565b62000329818484620002e2565b505050565b5b8181101562000351576200034560008262000312565b6001810190506200032f565b5050565b601f821115620003a0576200036a8162000214565b620003758462000229565b8101602085101562000385578190505b6200039d620003948562000229565b8301826200032e565b50505b505050565b600082821c905092915050565b6000620003c560001984600802620003a5565b1980831691505092915050565b6000620003e08383620003b2565b9150826002028217905092915050565b620003fb8262000176565b67ffffffffffffffff81111562000417576200041662000181565b5b620004238254620001df565b6200043082828562000355565b600060209050601f83116001811462000468576000841562000453578287015190505b6200045f8582620003d2565b865550620004cf565b601f198416620004788662000214565b60005b82811015620004a2578489015182556001820191506020850194506020810190506200047b565b86831015620004c25784890151620004be601f891682620003b2565b8355505b6001600288020188555050505b505050505050565b600082825260208201905092915050565b60005b8381101562000508578082015181840152602081019050620004eb565b60008484015250505050565b6000601f19601f8301169050919050565b6000620005328262000176565b6200053e8185620004d7565b935062000550818560208601620004e8565b6200055b8162000514565b840191505092915050565b6000602082019050818103600083015262000582818462000525565b905092915050565b61147d806200059a6000396000f3fe6080604052600436106100705760003560e01c806344ae465e1161004e57806344ae465e146100f657806366f6dbd9146101125780637cf7b9461461013d578063c3b4d25f1461017f57610070565b806306fdde03146100755780631c8a4038146100a05780632d852b1d146100cb575b600080fd5b34801561008157600080fd5b5061008a6101a8565b6040516100979190610a5d565b60405180910390f35b3480156100ac57600080fd5b506100b5610236565b6040516100c29190610a98565b60405180910390f35b3480156100d757600080fd5b506100e0610240565b6040516100ed9190610a98565b60405180910390f35b610110600480360381019061010b9190610c5a565b61024c565b005b34801561011e57600080fd5b50610127610457565b6040516101349190610a98565b60405180910390f35b34801561014957600080fd5b50610164600480360381019061015f9190610ce2565b610463565b60405161017696959493929190610d1e565b60405180910390f35b34801561018b57600080fd5b506101a660048036038101906101a19190610d94565b610657565b005b600080546101b590610e6a565b80601f01602080910402602001604051908101604052809291908181526020018280546101e190610e6a565b801561022e5780601f106102035761010080835404028352916020019161022e565b820191906000526020600020905b81548152906001019060200180831161021157829003601f168201915b505050505081565b655af3107a400081565b60028060000154905081565b6000815111610290576040517f08c379a000000000000000000000000000000000000000000000000000000000815260040161028790610ee7565b60405180910390fd5b600073ffffffffffffffffffffffffffffffffffffffff163373ffffffffffffffffffffffffffffffffffffffff16036102ff576040517f08c379a00000000000000000000000000000000000000000000000000000000081526004016102f690610f53565b60405180910390fd5b655af3107a40003414610347576040517f08c379a000000000000000000000000000000000000000000000000000000000815260040161033e90610fe5565b60405180910390fd5b8173ffffffffffffffffffffffffffffffffffffffff163373ffffffffffffffffffffffffffffffffffffffff16036103b5576040517f08c379a00000000000000000000000000000000000000000000000000000000081526004016103ac90611077565b60405180910390fd5b6103bf6002610980565b60006103cb6002610996565b90508273ffffffffffffffffffffffffffffffffffffffff166108fc349081150290604051600060405180830381858888f19350505050158015610413573d6000803e3d6000fd5b507e761a47b226af421960fb95c4445dce72063ef3b5c531982d93a9fe2d89b6cb813385854260405161044a959493929190611097565b60405180910390a1505050565b60018060000154905081565b600360205280600052604060002060009150905080600001549080600101805461048c90610e6a565b80601f01602080910402602001604051908101604052809291908181526020018280546104b890610e6a565b80156105055780601f106104da57610100808354040283529160200191610505565b820191906000526020600020905b8154815290600101906020018083116104e857829003601f168201915b50505050509080600201805461051a90610e6a565b80601f016020809104026020016040519081016040528092919081815260200182805461054690610e6a565b80156105935780601f1061056857610100808354040283529160200191610593565b820191906000526020600020905b81548152906001019060200180831161057657829003601f168201915b5050505050908060030180546105a890610e6a565b80601f01602080910402602001604051908101604052809291908181526020018280546105d490610e6a565b80156106215780601f106105f657610100808354040283529160200191610621565b820191906000526020600020905b81548152906001019060200180831161060457829003601f168201915b5050505050908060040160009054906101000a900473ffffffffffffffffffffffffffffffffffffffff16908060050154905086565b600083511161069b576040517f08c379a000000000000000000000000000000000000000000000000000000000815260040161069290610ee7565b60405180910390fd5b60008251116106df576040517f08c379a00000000000000000000000000000000000000000000000000000000081526004016106d69061113d565b60405180910390fd5b6000815111610723576040517f08c379a000000000000000000000000000000000000000000000000000000000815260040161071a906111a9565b60405180910390fd5b600073ffffffffffffffffffffffffffffffffffffffff163373ffffffffffffffffffffffffffffffffffffffff1603610792576040517f08c379a000000000000000000000000000000000000000000000000000000000815260040161078990610f53565b60405180910390fd5b61079c6001610980565b60006107a86001610996565b90506040518060c001604052808281526020018481526020018581526020018381526020013373ffffffffffffffffffffffffffffffffffffffff168152602001428152506003600083815260200190815260200160002060008201518160000155602082015181600101908161081f9190611375565b5060408201518160020190816108359190611375565b50606082015181600301908161084b9190611375565b5060808201518160040160006101000a81548173ffffffffffffffffffffffffffffffffffffffff021916908373ffffffffffffffffffffffffffffffffffffffff16021790555060a082015181600501559050507fa88aba73c371c5f7d31fa83978adf9e9aa574837df6303b316785892f014f7618184868533426040516108d996959493929190610d1e565b60405180910390a150505050565b61097d816040516024016108fb9190610a5d565b6040516020818303038152906040527f41304fac000000000000000000000000000000000000000000000000000000007bffffffffffffffffffffffffffffffffffffffffffffffffffffffff19166020820180517bffffffffffffffffffffffffffffffffffffffffffffffffffffffff83818316178352505050506109a4565b50565b6001816000016000828254019250508190555050565b600081600001549050919050565b60008151905060006a636f6e736f6c652e6c6f679050602083016000808483855afa5050505050565b600081519050919050565b600082825260208201905092915050565b60005b83811015610a075780820151818401526020810190506109ec565b60008484015250505050565b6000601f19601f8301169050919050565b6000610a2f826109cd565b610a3981856109d8565b9350610a498185602086016109e9565b610a5281610a13565b840191505092915050565b60006020820190508181036000830152610a778184610a24565b905092915050565b6000819050919050565b610a9281610a7f565b82525050565b6000602082019050610aad6000830184610a89565b92915050565b6000604051905090565b600080fd5b600080fd5b600073ffffffffffffffffffffffffffffffffffffffff82169050919050565b6000610af282610ac7565b9050919050565b610b0281610ae7565b8114610b0d57600080fd5b50565b600081359050610b1f81610af9565b92915050565b600080fd5b600080fd5b7f4e487b7100000000000000000000000000000000000000000000000000000000600052604160045260246000fd5b610b6782610a13565b810181811067ffffffffffffffff82111715610b8657610b85610b2f565b5b80604052505050565b6000610b99610ab3565b9050610ba58282610b5e565b919050565b600067ffffffffffffffff821115610bc557610bc4610b2f565b5b610bce82610a13565b9050602081019050919050565b82818337600083830152505050565b6000610bfd610bf884610baa565b610b8f565b905082815260208101848484011115610c1957610c18610b2a565b5b610c24848285610bdb565b509392505050565b600082601f830112610c4157610c40610b25565b5b8135610c51848260208601610bea565b91505092915050565b60008060408385031215610c7157610c70610abd565b5b6000610c7f85828601610b10565b925050602083013567ffffffffffffffff811115610ca057610c9f610ac2565b5b610cac85828601610c2c565b9150509250929050565b610cbf81610a7f565b8114610cca57600080fd5b50565b600081359050610cdc81610cb6565b92915050565b600060208284031215610cf857610cf7610abd565b5b6000610d0684828501610ccd565b91505092915050565b610d1881610ae7565b82525050565b600060c082019050610d336000830189610a89565b8181036020830152610d458188610a24565b90508181036040830152610d598187610a24565b90508181036060830152610d6d8186610a24565b9050610d7c6080830185610d0f565b610d8960a0830184610a89565b979650505050505050565b600080600060608486031215610dad57610dac610abd565b5b600084013567ffffffffffffffff811115610dcb57610dca610ac2565b5b610dd786828701610c2c565b935050602084013567ffffffffffffffff811115610df857610df7610ac2565b5b610e0486828701610c2c565b925050604084013567ffffffffffffffff811115610e2557610e24610ac2565b5b610e3186828701610c2c565b9150509250925092565b7f4e487b7100000000000000000000000000000000000000000000000000000000600052602260045260246000fd5b60006002820490506001821680610e8257607f821691505b602082108103610e9557610e94610e3b565b5b50919050565b7f4d657373616765206d757374206e6f7420626520656d70747900000000000000600082015250565b6000610ed16019836109d8565b9150610edc82610e9b565b602082019050919050565b60006020820190508181036000830152610f0081610ec4565b9050919050565b7f53656e646572206d757374206e6f7420626520656d7074790000000000000000600082015250565b6000610f3d6018836109d8565b9150610f4882610f07565b602082019050919050565b60006020820190508181036000830152610f6c81610f30565b9050919050565b7f436f66666565207072696365206d75737420626520302e30303031206574686560008201527f7200000000000000000000000000000000000000000000000000000000000000602082015250565b6000610fcf6021836109d8565b9150610fda82610f73565b604082019050919050565b60006020820190508181036000830152610ffe81610fc2565b9050919050565b7f596f752063616e27742062757920636f6666656520666f7220796f757273656c60008201527f6600000000000000000000000000000000000000000000000000000000000000602082015250565b60006110616021836109d8565b915061106c82611005565b604082019050919050565b6000602082019050818103600083015261109081611054565b9050919050565b600060a0820190506110ac6000830188610a89565b6110b96020830187610d0f565b6110c66040830186610d0f565b81810360608301526110d88185610a24565b90506110e76080830184610a89565b9695505050505050565b7f48617368206d757374206e6f7420626520656d70747900000000000000000000600082015250565b60006111276016836109d8565b9150611132826110f1565b602082019050919050565b600060208201905081810360008301526111568161111a565b9050919050565b7f43617465676f7279206d757374206e6f7420626520656d707479000000000000600082015250565b6000611193601a836109d8565b915061119e8261115d565b602082019050919050565b600060208201905081810360008301526111c281611186565b9050919050565b60008190508160005260206000209050919050565b60006020601f8301049050919050565b600082821b905092915050565b60006008830261122b7fffffffffffffffffffffffffffffffffffffffffffffffffffffffffffffffff826111ee565b61123586836111ee565b95508019841693508086168417925050509392505050565b6000819050919050565b600061127261126d61126884610a7f565b61124d565b610a7f565b9050919050565b6000819050919050565b61128c83611257565b6112a061129882611279565b8484546111fb565b825550505050565b600090565b6112b56112a8565b6112c0818484611283565b505050565b5b818110156112e4576112d96000826112ad565b6001810190506112c6565b5050565b601f821115611329576112fa816111c9565b611303846111de565b81016020851015611312578190505b61132661131e856111de565b8301826112c5565b50505b505050565b600082821c905092915050565b600061134c6000198460080261132e565b1980831691505092915050565b6000611365838361133b565b9150826002028217905092915050565b61137e826109cd565b67ffffffffffffffff81111561139757611396610b2f565b5b6113a18254610e6a565b6113ac8282856112e8565b600060209050601f8311600181146113df57600084156113cd578287015190505b6113d78582611359565b86555061143f565b601f1984166113ed866111c9565b60005b82811015611415578489015182556001820191506020850194506020810190506113f0565b86831015611432578489015161142e601f89168261133b565b8355505b6001600288020188555050505b50505050505056fea2646970667358221220b5e18637bd16b4e7fbbb7c7a5d563b54b0a84f707342e0dd6e11d7a83fe84c7164736f6c63430008110033",
  "linkReferences": {},
  "deployedLinkReferences": {}
}